:100000000C942A000C9447000C9447000C94470071
:100010000C9447000C9447000C9447000C94470044
:100020000C9447000C9447000C9447000C94470034
:100030000C9447000C949C000C9447000C944700CF
:100040000C9447000C9447000C9447000C94470014
:100050000C94470011241FBECFE5D8E0DEBFCDBF12
:1000600010E0A0E6B0E0EEEFF5E002C005900D92E2
:10007000A837B107D9F710E0A8E7B0E001C01D929A
:10008000A938B107E1F70E9471020C94FD020C94AB
:100090000000579A56985598549A539A86E880BD0E
:1000A00008955D9BFECF8CB908955F9BFECF8CB108
:1000B00008958CB108959B01AC0160E072E18AE77C
:1000C00090E00E94DB02C901DA0134E0B695A79501
:1000D000979587953A95D1F70197A109B1098F3F77
:1000E0009105A105B10510F489B9089589B9892F41
:1000F0009A2FAB2FBB278F7080BD0895FC0104C0E1
:100100005D9BFECF8CB9319680818823C9F7089515
:10011000FC015F9BFECF8CB180838D3021F08A3053
:1001200011F03196F6CF10820895882321F4709350
:1001300079006093780008951F920F920FB60F9286
:1001400011242F933F934F935F936F937F938F93DC
:100150009F93AF93BF93EF93FF93E0917800F0915B
:100160007900309711F08CB10995FF91EF91BF9113
:10017000AF919F918F917F916F915F914F913F913F
:100180002F910F900FBE0F901F9018958FB780681A
:100190008FBF08958FB78F778FBF08954130B1F526
:1001A000813099F0813030F08230D1F0833009F025
:1001B00067C021C02AB381E090E002C0880F991F78
:1001C0006A95E2F7282B2ABB089527B381E090E0D7
:1001D00002C0880F991F6A95E2F7282B27BB089564
:1001E00024B381E090E002C0880F991F6A95E2F77E
:1001F000282B24BB089521B381E090E002C0880F32
:10020000991F6A95E2F7282B21BB08954423C1F575
:10021000813099F0813028F08230D9F0833081F537
:1002200024C02AB381E090E002C0880F991F6A952C
:10023000E2F7809582238ABB089527B381E090E09E
:1002400002C0880F991F6A95E2F78095822387BBC9
:10025000089524B381E090E002C0880F991F6A9549
:10026000E2F78095822384BB089521B381E090E07A
:1002700002C0880F991F6A95E2F78095822381BB9F
:1002800008954130B1F5813099F0813030F08230FD
:10029000D1F0833009F067C021C02BB381E090E03A
:1002A00002C0880F991F6A95E2F7282B2BBB08958F
:1002B00028B381E090E002C0880F991F6A95E2F7A9
:1002C000282B28BB089525B381E090E002C0880F59
:1002D000991F6A95E2F7282B25BB089522B381E088
:1002E00090E002C0880F991F6A95E2F7282B22BB85
:1002F00008954423C1F5813099F0813028F082308F
:10030000D9F0833081F524C02BB381E090E002C0A6
:10031000880F991F6A95E2F7809582238BBB089519
:1003200028B381E090E002C0880F991F6A95E2F738
:100330008095822388BB089525B381E090E002C0B8
:10034000880F991F6A95E2F78095822385BB0895EF
:1003500022B381E090E002C0880F991F6A95E2F70E
:100360008095822382BB0895813051F0813030F036
:10037000823041F0833079F080E0089589B303C082
:1003800086B301C083B390E002C0959587956A95C6
:10039000E2F78170089580B390E002C0959587954B
:1003A0006A95E2F781700895813091F0813028F0EC
:1003B0008230C9F0833061F521C02BB381E090E039
:1003C00002C0880F991F6A95E2F728272BBB089572
:1003D00028B381E090E002C0880F991F6A95E2F788
:1003E000282728BB089525B381E090E002C0880F3C
:1003F000991F6A95E2F7282725BB089522B381E06B
:1004000090E002C0880F991F6A95E2F7282722BB67
:100410000895813049F0813028F0823039F08330FE
:1004200041F406C06ABB089567BB089564BB089594
:1004300061BB0895813049F0813028F0823039F075
:10044000833041F406C06BBB089568BB089565BB5B
:10045000089562BB0895813051F0813030F08230D0
:1004600041F0833041F080E0089589B3089586B368
:10047000089583B3089580B3089520917B0030914F
:100480007C0040917D0050917E00F901E158FF4FC2
:100490008083293031054105510531F080818A3052
:1004A00019F080818D3081F4F901E158FF4F1082FD
:1004B00010927B0010927C0010927D0010927E00C2
:1004C00081E080937A0008952F5F3F4F4F4F5F4F39
:1004D00020937B0030937C0040937D0050937E00FE
:1004E000089580E060E041E00E94CE0080E061E09D
:1004F00041E00E94CE0080E062E041E00E94CE0038
:1005000080E063E041E00E94CE000E94490060E884
:1005100075E280E090E00E945B0080E06DE372E0B5
:100520000E9495000E94C60080E690E00E947E0036
:1005300080917A008130E1F780E060E040E00E9445
:10054000410180E061E040E00E94410180E062E022
:1005500040E00E94410180E063E040E00E944101F0
:1005600080917F00863651F0873618F48236A9F4E0
:1005700008C08C3679F0823781F409C080E060E0F1
:1005800002C080E061E041E00E9441010AC080E0D9
:1005900062E0F9CF80E063E0F6CF89E690E00E9468
:1005A0007E008FE790E00E947E008DE00E94510067
:1005B00010927A00BDCFA1E21A2EAA1BBB1BFD012F
:1005C0000DC0AA1FBB1FEE1FFF1FA217B307E40732
:1005D000F50720F0A21BB30BE40BF50B661F771F8A
:1005E000881F991F1A9469F760957095809590956A
:0E05F0009B01AC01BD01CF010895F894FFCF2F
:1005FE00415353454D200D0A0057726F6E672061AF
:08060E006E737765720D0A009E
:00000001FF
