:100000000C942A000C9447000C9447000C94470071
:100010000C9447000C9447000C9447000C94470044
:100020000C9447000C9447000C9447000C94470034
:100030000C9447000C949C000C9447000C944700CF
:100040000C9450020C9447000C9447000C94470009
:100050000C94470011241FBECFE5D8E0DEBFCDBF12
:1000600010E0A0E6B0E0E4EFFAE002C005900D92E7
:10007000A23DB107D9F710E0A2EDB0E001C01D929A
:10008000AA3EB107E1F70E9431040C9478050C9464
:100090000000579A56985598549A539A86E880BD0E
:1000A00008955D9BFECF8CB908955F9BFECF8CB108
:1000B00008958CB108959B01AC0160E072E18AE77C
:1000C00090E00E943B05C901DA0134E0B695A7959E
:1000D000979587953A95D1F70197A109B1098F3F77
:1000E0009105A105B10510F489B9089589B9892F41
:1000F0009A2FAB2FBB278F7080BD0895FC0104C0E1
:100100005D9BFECF8CB9319680818823C9F7089515
:10011000FC015F9BFECF8CB180838D3021F08A3053
:1001200011F03196F6CF10820895882321F4709350
:10013000D3006093D20008951F920F920FB60F92D2
:1001400011242F933F934F935F936F937F938F93DC
:100150009F93AF93BF93EF93FF93E091D200F09101
:10016000D300309711F08CB10995FF91EF91BF91B9
:10017000AF919F918F917F916F915F914F913F913F
:100180002F910F900FBE0F901F9018950F931F93F4
:10019000182F81E060E041E00E94EC0281E061E024
:1001A00040E00E94EC0282E0612F0E94C50381E0E2
:1001B00062E041E00E94EC0200ED17E0C801019707
:1001C000F1F781E062E040E00E94EC02C801019793
:1001D000F1F71F910F9108954F925F926F927F9266
:1001E0008F929F92AF92BF92CF92DF92EF92FF9247
:1001F0000F931F933B014C0155244424AA24BB2494
:1002000065012BC0C401B3012AE030E040E050E0BA
:100210000E943B057B018C01E114F10401051105ED
:1002200021F4442011F4539402C044244394C601A1
:10023000B5012AE030E040E050E00E941C055B017F
:100240006C01AE0CBF1CC01ED11EC401B3010E94C4
:100250003B05C901DA013C014D01611471048104BF
:10026000910481F618C0C601B5012AE030E040E0F3
:1002700050E00E945D05862F805D0E94C600C60189
:10028000B5012AE030E040E050E00E945D05C90180
:10029000DA015C016D011A141B041C041D041CF31B
:1002A00010E004C080E30E94C6001F5F1515D0F364
:1002B0001F910F91FF90EF90DF90CF90BF90AF9084
:1002C0009F908F907F906F905F904F9008951F93B5
:1002D000CF93DF93EC0110E003C00E94C6001F5FC4
:1002E000FE01E10FF11D80818823B9F7DF91CF91E5
:1002F0001F9108950F931F93182F81E060E040E055
:100300000E94EC0281E061E040E00E94EC0282E0A9
:10031000612F0E94C50381E062E041E00E94EC028F
:1003200000ED17E0C8010197F1F781E062E040E0DD
:100330000E94EC02C8010197F1F71F910F910895F7
:10034000882319F0813051F405C0862F80580E940F
:100350007A010895862F80540E947A0108950F93A0
:100360001F93CF93DF938C016830B0F4660F660F54
:10037000660F862F805C0E947A01C0E0D0E0F80111
:10038000EC0FFD1F80810E94C6002196C830D10568
:10039000B1F780E80E947A01DF91CF911F910F9110
:1003A000089581E00E947A0108950F931F9381E0E0
:1003B00060E041E00E94790281E061E041E00E945A
:1003C000790281E062E041E00E94790282E06FEF11
:1003D0000E94B40384EF91E028EC30E0F9013197FA
:1003E000F1F70197D9F788E30E947A0100ED17E051
:1003F000C8010197F1F78CE00E947A01C8010197CA
:10040000F1F781E00E947A0180E797E10197F1F727
:1004100086E00E947A0180E197E20197F1F71F914F
:100420000F9108958FB780688FBF08958FB78F772A
:100430008FBF089587B18F7387B987B187B93D980A
:10044000379A359A80B78F7180BF80B780BF339A53
:1004500086B1887F86B986B1876086B9089597B1DD
:10046000907E97B997B18770892B87B9369A349B5C
:10047000FECF349A24B135B1C901089524B135B104
:10048000C9010895982F883028F487B1807E892B80
:1004900087B9369A08959093D5008093D400089533
:1004A0001F920F920FB60F9211242F933F934F93E9
:1004B0005F936F937F938F939F93AF93BF93EF93CC
:1004C000FF93E091D400F091D500309709F00995A1
:1004D000FF91EF91BF91AF919F918F917F916F911C
:1004E0005F914F913F912F910F900FBE0F901F90F2
:1004F00018954130B1F5813099F0813030F082307B
:10050000D1F0833009F067C021C02AB381E090E0C8
:1005100002C0880F991F6A95E2F7282B2ABB08951D
:1005200027B381E090E002C0880F991F6A95E2F737
:10053000282B27BB089524B381E090E002C0880FE8
:10054000991F6A95E2F7282B24BB089521B381E017
:1005500090E002C0880F991F6A95E2F7282B21BB13
:1005600008954423C1F5813099F0813028F082301C
:10057000D9F0833081F524C02AB381E090E002C035
:10058000880F991F6A95E2F7809582238ABB0895A8
:1005900027B381E090E002C0880F991F6A95E2F7C7
:1005A0008095822387BB089524B381E090E002C048
:1005B000880F991F6A95E2F78095822384BB08957E
:1005C00021B381E090E002C0880F991F6A95E2F79D
:1005D0008095822381BB08954130B1F5813099F037
:1005E000813030F08230D1F0833009F067C021C013
:1005F0002BB381E090E002C0880F991F6A95E2F763
:10060000282B2BBB089528B381E090E002C0880F0F
:10061000991F6A95E2F7282B28BB089525B381E03E
:1006200090E002C0880F991F6A95E2F7282B25BB3E
:10063000089522B381E090E002C0880F991F6A9567
:10064000E2F7282B22BB08954423C1F5813099F0AD
:10065000813028F08230D9F0833081F524C02BB36B
:1006600081E090E002C0880F991F6A95E2F78095BB
:1006700082238BBB089528B381E090E002C0880FED
:10068000991F6A95E2F78095822388BB089525B368
:1006900081E090E002C0880F991F6A95E2F780958B
:1006A000822385BB089522B381E090E002C0880FC9
:1006B000991F6A95E2F78095822382BB0895813065
:1006C00051F0813030F0823041F0833079F080E0B9
:1006D000089589B303C086B301C083B390E002C01C
:1006E000959587956A95E2F78170089580B390E0BB
:1006F00002C0959587956A95E2F7817008958130DB
:1007000091F0813028F08230C9F0833061F521C04A
:100710002BB381E090E002C0880F991F6A95E2F741
:1007200028272BBB089528B381E090E002C0880FF2
:10073000991F6A95E2F7282728BB089525B381E021
:1007400090E002C0880F991F6A95E2F7282725BB21
:10075000089522B381E090E002C0880F991F6A9546
:10076000E2F7282722BB0895813049F0813028F034
:10077000823039F0833041F406C06ABB089567BB0C
:10078000089564BB089561BB0895813049F08130BC
:1007900028F0823039F0833041F406C06BBB0895F5
:1007A00068BB089565BB089562BB0895813051F020
:1007B000813030F0823041F0833041F080E00895A4
:1007C00089B3089586B3089583B3089580B30895D7
:1007D0002091DC003091DD004091DE005091DF007F
:1007E000F901E052FF4F8083293031054105510561
:1007F00031F080818A3019F080818D3081F4F901E7
:10080000E052FF4F10821092DC001092DD00109237
:10081000DE001092DF0081E08093D60008952F5F04
:100820003F4F4F4F5F4F2093DC003093DD004093EC
:10083000DE005093DF00089580E060E040E00E9419
:10084000EC0280E061E040E00E94EC0280E062E0C7
:1008500040E00E94EC0280E063E040E00E94EC0295
:100860000895EF92FF920F931F93CF93DF930E940F
:10087000D5010E94490060E875E280E090E00E94A6
:100880005B0080E068EE73E00E94950080E060E02D
:1008900041E00E94790280E061E041E00E9479023B
:1008A00080E062E041E00E94790280E063E041E0A4
:1008B0000E9479028FE095E00E944B020E941A028A
:1008C00087E00E9442020E94120280E690E00E94AD
:1008D0007E0081E060E00E94A00183E790E00E943A
:1008E000670194EFE92E91E0F92E08EC10E0809179
:1008F000DB008130D1F51092DB0087E00E944202DC
:100900008091D9009091DA008E9DE0018F9DD00DED
:100910009E9DD00D1124CD2FDD27C695C69581E073
:1009200067E00E94A0018AE790E00E946701C83258
:10093000D10550F481E067E00E94A001BE0180E093
:1009400090E00E94EC000AC081E067E00E94A001F4
:1009500084E890E00E9467010E941C0488EE93E006
:10096000F8013197F1F70197D9F78091D6008130DE
:1009700009F0BDCF0E941C0480E060E00E94A0014D
:100980008CE890E00E94670180E060E00E94A00196
:100990008091E0008C3621F18D3628F4823681F08A
:1009A000863659F505C0823799F0833731F520C076
:1009B00080E060E041E00E94EC0285E990E023C025
:1009C00080E061E041E00E94EC028DE990E01BC014
:1009D00080E062E041E00E94EC0286EA90E013C011
:1009E00080E063E041E00E94EC028CEA90E00BC002
:1009F0000E941C0481EB90E006C086EB90E00E9410
:100A00007E0085EC90E00E94670180EE90E00E94FD
:100A10007E008DE00E9451001092D60068CF0E94A7
:100A20003E029093DA008093D90081E08093DB004E
:100A300087E00E9442020895629FD001739FF001F7
:100A4000829FE00DF11D649FE00DF11D929FF00D5E
:100A5000839FF00D749FF00D659FF00D9927729F95
:100A6000B00DE11DF91F639FB00DE11DF91FBD0120
:100A7000CF0111240895A1E21A2EAA1BBB1BFD0170
:100A80000DC0AA1FBB1FEE1FFF1FA217B307E4076D
:100A9000F50720F0A21BB30BE40BF50B661F771FC5
:100AA000881F991F1A9469F76095709580959095A5
:100AB0009B01AC01BD01CF01089597FB092E0526CE
:100AC0000ED057FD04D0D7DF0AD0001C38F4509563
:100AD0004095309521953F4F4F4F5F4F0895F6F762
:100AE00090958095709561957F4F8F4F9F4F08959A
:040AF000F894FFCFA8
:100AF40048656C6C6F204D7920467269656E642080
:100B04000D0A0054656D703A20002020202020201A
:100B1400202020005761726E696E6700202020201B
:100B24002020202000466F72776172640042616366
:100B34006B776F7264005269676874004C65667401
:100B44000053746F700057726F6E6720616E737715
:100B540065720D0A0057726F6E6720616E73776558
:020B640072001D
:00000001FF
